:020000040800F2
:100000006006002099010008A1010008A301000872
:10001000A5010008A7010008A901000800000000D0
:10002000000000000000000000000000AB0100081C
:10003000AD01000800000000AF010008B101000898
:10004000B3010008B3010008B3010008B3010008C0
:10005000B3010008B3010008B3010008B3010008B0
:10006000B3010008B3010008B3010008B3010008A0
:10007000B3010008B3010008B3010008B301000890
:10008000B3010008B3010008B3010008B301000880
:10009000B3010008B3010008B3010008B301000870
:1000A000B3010008B3010008B3010008B301000860
:1000B000B3010008B3010008B3010008B301000850
:1000C000B3010008B3010008B3010008B301000840
:1000D000B3010008B3010008B3010008B301000830
:1000E000B3010008B3010008B301000800F002F8F2
:1000F00000F042F814A696E8000CB244B344DA4586
:1001000001D100F039F8BAE80F000FA696E83000E8
:10011000A5EB040504EB0607AAEB0704A7F101070A
:100120004FEA15154FEA3414A4F10104AC4201D38F
:1001300000F022F813F0010F18BFFB1A43F001037F
:1001400000F001F8DBE71847140300002403000067
:10015000704700000023002400250026103A28BF25
:1001600078C1FBD8520728BF30C148BF0B60704729
:100170001FB51FBD10B510BD00F031F81146FFF7D7
:10018000F7FF00F061F900F04FF803B4FFF7F2FF5A
:1001900003BC00F057F800000948804709480047B1
:1001A000FEE7FEE7FEE7FEE7FEE7FEE7FEE7FEE727
:1001B000FEE7FEE704480549054A064B7047000084
:1001C000C1030008ED000008600000206006002068
:1001D000600200206002002070477047704775463B
:1001E00000F02CF8AE4605006946534620F00700A3
:1001F000854618B020B5FFF7DDFFBDE820404FF081
:1002000000064FF000074FF000084FF0000BAC461F
:10021000ACE8C009ACE8C009ACE8C009ACE8C0096A
:1002200021F007018D46704710B50446AFF30080FA
:100230002046BDE81040FFF7A8BF00000048704707
:100240000000002001491820ABBEFEE72600020096
:100250007047000080B582B0019000200090FFE759
:1002600000980199884213D2FFE74FF080400021A7
:1002700000F0E0F8FFE74FF0804000F0D5F80928E3
:1002800001DCFFE7F7E7FFE7009801300090E7E7C0
:1002900002B080BD80B500F001F880BD84B00020C0
:1002A0000390029041F20001C4F20201086840F498
:1002B00080300860FFE741F20000C4F202000068ED
:1002C00000F400300290039801300390FFE7029998
:1002D0000020019039B9FFE70398B0F5A06018BF7E
:1002E00001200190FFE70198C0070028E3D1FFE754
:1002F00041F20000C4F2020000688003002803D528
:10030000FFE70120029002E000200290FFE7029840
:10031000012851D1FFE742F20001C4F2020108684E
:1003200040F010000860086820F0070008600868C6
:1003300040F00200086041F20401C4F202010091A1
:100340000868086008680860086840F48060086011
:10035000086820F47C100860086840F4E810086021
:1003600041F20001C4F20201086840F080700860A8
:10037000FFE741F20000C4F202000068800100289B
:1003800001D4FFE7F5E741F20401C4F20201086875
:1003900020F003000860086840F002000860FFE7F2
:1003A00041F20400C4F20200006800F00C000828CA
:1003B00001D0FFE7F4E700E0FFE704B0704700007A
:1003C00080B541F20002C4F20202106840F0010060
:1003D000106041F20401C4F2020108680023CFF664
:1003E000FF031840086010684FF6FF73CFF6F663FE
:1003F00018401060106820F480201060086820F415
:10040000FE00086041F20801C4F202014FF41F002F
:100410000860FFF73FFF4EF60851CEF200014FF0A3
:100420000060086080BD000081B000900098808C62
:1004300001B0704782B00190ADF80210BDF8020023
:100440000199888402B0704780B582B00020019085
:10045000FFE74FF47A70FFF7FDFEFAE76C0400083F
:0C046000000000206006000054010008AD
:04000005080000ED02
:00000001FF
