:020000040800F2
:10000000E82C0020BD010008C5010008C701000858
:10001000C9010008CB010008CD0100080000000064
:10002000000000000000000000000000E1030008E4
:10003000D10100080000000091030008310500080C
:10004000D7010008D7010008D7010008D701000830
:10005000D7010008D7010008D7010008D701000820
:10006000D7010008D7010008D7010008D701000810
:10007000D7010008D7010008D7010008D701000800
:10008000D7010008D7010008D7010008D7010008F0
:10009000D7010008D7010008D7010008D7010008E0
:1000A000D7010008D7010008D7010008D7010008D0
:1000B000D7010008D7010008D7010008D7010008C0
:1000C000D7010008D7010008D7010008D7010008B0
:1000D000D7010008D7010008D7010008D7010008A0
:1000E000D7010008D7010008D701000800F002F886
:1000F00000F050F814A696E8000CB244B344DA4578
:1001000001D100F047F8BAE80F000FA696E83000DA
:10011000A5EB040504EB0607AAEB0704A7F101070A
:100120004FEA15154FEA3414A4F10104AC4201D38F
:1001300000F030F813F0010F18BFFB1A43F0010371
:1001400000F001F8DBE71847701C0000901C00006D
:10015000103A24BF78C878C1FAD8520724BF30C8F3
:1001600030C144BF04680C60704700007047000055
:100170000023002400250026103A28BF78C1FBD8B0
:10018000520728BF30C148BF0B6070471FB51FBD65
:1001900010B510BD00F0ACF8114603B400F0A6FA9B
:1001A00003BCFFF7F3FF00F0A3FA00F0C6F803B4B6
:1001B000FFF7EEFF03BC00F0CDF8000009488047D0
:1001C00009480047FEE7FEE7FEE7FEE7FEE7FEE739
:1001D000FEE7FEE7FEE7FEE704480549054A064B51
:1001E0007047000051050008ED000008E8260020D7
:1001F000E82C0020E8280020E8280020032A40F20C
:10020000308010F0030C00F0158011F8013BBCF1B8
:10021000020F624498BF11F801CB00F8013B38BFD0
:1002200011F8013BA2F1040298BF00F801CB38BFDE
:1002300000F8013B11F0030300F02880083AC0F0F9
:10024000088051F8043B083A51F804CBA0E80810A4
:10025000F5E7121D5CBF51F8043B40F8043BAFF3D7
:100260000080D20724BF11F8013B11F801CB48BF31
:1002700011F8012B24BF00F8013B00F801CB48BF67
:1002800000F8012B704770477047704710B5203A4F
:10029000C0F00B80B1E81850A0E81850B1E8185031
:1002A000A0E81850203ABFF4F5AF5FEA027C24BF03
:1002B000B1E81850A0E8185044BF18C918C0BDE8EC
:1002C00010405FEA827C24BF51F8043B40F8043BB5
:1002D00008BF7047D20728BF31F8023B48BF11F86A
:1002E000012B28BF20F8023B48BF00F8012B7047C4
:1002F000754600F02BF8AE4605006946534620F0DF
:100300000700854618B020B5FFF766FFBDE820401E
:100310004FF000064FF000074FF000084FF0000BC1
:10032000AC46ACE8C009ACE8C009ACE8C009ACE830
:10033000C00921F007018D46704710B50446AFF3A0
:1003400000802046BDE81040FFF731BF00487047ED
:100350000800002001491820ABBEFEE7260002007D
:100360007047000082B0019000200090FFE70098E5
:1003700001994FF4FA525143884206D2FFE700BF79
:10038000FFE7009801300090F1E702B070470000ED
:10039000EFF30980BFF36F8F0D4B1A6820E9F00F60
:1003A00010602DE908404FF0100080F3118800F034
:1003B000EFFE4FF0000080F31188BDE80840196897
:1003C0000868B0E8F00F80F30988BFF36F8F7047BB
:1003D00010020020000000000000000000000000EB
:1003E000074B19680868B0E8F00F80F30988BFF37D
:1003F0006F8F4FF0000080F311884EF00D0E7047A4
:100400001002002080B500F001F880BD84B000200B
:100410000390029041F20001C4F20201086840F426
:1004200080300860FFE741F20000C4F2020000687B
:1004300000F400300290039801300390FFE7029926
:100440000020019039B9FFE70398B0F5A06018BF0C
:1004500001200190FFE70198C0070028E3D1FFE7E2
:1004600041F20000C4F2020000688003002803D5B6
:10047000FFE70120029002E000200290FFE70298CF
:10048000012851D1FFE742F20001C4F202010868DD
:1004900040F010000860086820F007000860086855
:1004A00040F00200086041F20401C4F20201009130
:1004B0000868086008680860086840F480600860A0
:1004C000086820F47C100860086840F4E8100860B0
:1004D00041F20001C4F20201086840F08070086037
:1004E000FFE741F20000C4F202000068800100282A
:1004F00001D4FFE7F5E741F20401C4F20201086804
:1005000020F003000860086840F002000860FFE780
:1005100041F20400C4F20200006800F00C00082858
:1005200001D0FFE7F4E700E0FFE704B07047000008
:1005300080B54EF21000CEF20000006801F068F9BC
:10054000012803D0FFE700F0A5FEFFE780BD000013
:1005500080B541F20002C4F20202106840F00100CE
:10056000106041F20401C4F2020108680023CFF6D2
:10057000FF031840086010684FF6FF73CFF6F6636C
:1005800018401060106820F480201060086820F483
:10059000FE00086041F20801C4F202014FF41F009E
:1005A0000860FFF72FFF4EF60851CEF200014FF022
:1005B0000060086080BD000080B582B0019000F04E
:1005C000A1F838B1FFE7019800684FF0FF3101F062
:1005D00005F8FFE702B080BD80B582B001900198B8
:1005E000006800F017FD00200090FFE70098042845
:1005F0001AD8FFE701980068009A40F2F811C2F299
:10060000000151F82210884209D1FFE7009A40F218
:10061000F811C2F20001002041F8220004E0FFE7D7
:10062000009801300090E1E702B080BD80B584B051
:1006300002900299002008600190FFE701980428C9
:100640002BD8FFE7019940F2F810C2F2000050F8F1
:100650002100E8B9FFE7019800EB800140F2680053
:10066000C2F2000000EB01110120009000F044FEF6
:1006700002460098019B40F2F811C2F2000141F8D5
:100680002320019A51F82210029A1160039018E079
:10069000FFE7019801300190D0E700F033F830B166
:1006A000FFE7012000F014FE02990860FFE70298BE
:1006B000006818B9FFE70020039002E001200390D2
:1006C000FFE7039804B080BD80B582B0019000F0D0
:1006D00019F840B1FFE701980068002319461A464F
:1006E00000F0C6FEFFE702B080BD000070470000CA
:1006F00080B582B000200190FFE74FF47A70FFF7D9
:1007000031FEFAE780B582B040F20C20C2F2000060
:10071000007880B9FFE701F07BF8012808D0FFE7F7
:1007200040F20C21C2F2000101200870019005E0A6
:100730000020019002E001200190FFE7019802B043
:1007400080BD000080B584B00390029142F2E06069
:10075000C2F200000068009040F21020C2F20000D7
:100760000068043000F052FB08B9FFE700E0FFE743
:100770000398013080B9FFE7029868B1FFE740F2C3
:100780001020C2F200000068011D42F2CC60C2F2EB
:10079000000000F0B3FB3DE000980399084401908D
:1007A000019840F21021C2F20001096848600198E6
:1007B000009988420ED2FFE740F21C20C2F20000EE
:1007C000006840F21021C2F200010968043100F013
:1007D0005FFB1EE040F21420C2F20000006840F20D
:1007E0001021C2F200010968043100F051FB0198A8
:1007F00042F29861C2F200010968884207D2FFE71D
:10080000019842F29861C2F20001086000E0FFE73F
:10081000FFE7FFE704B080BD80B586B00590049186
:100820000392002002900598806B01900598006C5F
:1008300078B9FFE70598006848B9FFE70598806830
:1008400001F0D2F8029005990020886000E0FFE7EF
:1008500041E00398B8B9FFE7059A04995068126C13
:10086000FFF7CCFC059948680A6C1044486005996C
:1008700048688968884204D3FFE70599086848609A
:1008800000E0FFE726E0059A0499D068126CFFF7B4
:10089000B5FC0599C8680A6C801AC860059801689B
:1008A000C068884206D2FFE7059988680A6C801AFA
:1008B000C86000E0FFE70398022809D1FFE701982C
:1008C00020B1FFE701980138019000E0FFE700E068
:1008D000FFE7FFE7FFE70198013005998863029879
:1008E00006B080BD82B001900198406A38B1FFE740
:1008F0000198006B0068C0F13800009002E0002011
:100900000090FFE7009802B07047000084B04FF4F9
:100910000050009040F28060C2F2000001909DF80B
:100920000400400788B1FFE7019807300190019863
:1009300020F007000190019A40F28061C2F20001AC
:100940000098891A08440090FFE7019802900299E4
:1009500042F2C460C2F200000160002141600298CE
:10096000009A10440190019808380190019820F0F5
:1009700007000190019A40F21820C2F200000260C4
:100980000268516002681160029903910199039A0B
:10099000891A51600068039908600398406842F220
:1009A0009461C2F2000108600398406842F29061CD
:1009B000C2F20001086042F28C61C2F200014FF005
:1009C0000040086004B0704780B582B00190019883
:1009D00068B1FFE7019800238360019803600198E4
:1009E000C360019819461A4600F042FD00E0FFE797
:1009F00002B080BD80B584B0DDF818C003900291CC
:100A000001928DF80330029818B9FFE7069800604C
:100A100003E0019806990860FFE703980699C86308
:100A20000298069908640698012100F0D1FC9DF80F
:100A30000300069981F84C0004B080BD83B0029099
:100A400042F2C460C2F200000190FFE70198006822
:100A50000299884205D2FFE7FFE7019800680190FC
:100A6000F4E70198009000980199496808440299B8
:100A7000884209D1FFE7029842680199486810440A
:100A800048600198029000E0FFE70298009000980B
:100A900002994968084401990968884220D1FFE712
:100AA0000198006840F21821C2F2000109688842EA
:100AB0000DD0FFE701980068426802994868104429
:100AC00048600198006800680299086007E040F2F9
:100AD0001820C2F20000006802990860FFE704E0F5
:100AE0000198006802990860FFE70198029988421E
:100AF00004D0FFE702980199086000E0FFE703B027
:100B00007047000080B582B0019000F015FA01989E
:100B1000806B18B9FFE70120009002E000200090F0
:100B2000FFE700F021FA009802B080BD80B582B0E6
:100B3000019000F001FA0198806B0199C96B88421D
:100B400003D1FFE70120009002E000200090FFE7C2
:100B500000F00AFA009802B080BD000081B040F2B7
:100B60001420C2F200000068006840B9FFE742F2BA
:100B70009861C2F200014FF0FF3008600FE040F2D0
:100B80001420C2F200000068C068C068009000989D
:100B9000406842F29861C2F200010860FFE701B0CC
:100BA0007047000080B582B0019000F0C5F901984F
:100BB00090F845008DF80300FFE79DF90300012838
:100BC00016DBFFE70198406A58B1FFE7019824302F
:100BD00000F0E6FF18B1FFE700F040FA00E0FFE7A1
:100BE00000E005E09DF8030001388DF80300E4E71C
:100BF0000199FF2081F8450000F0B6F900F09CF95A
:100C0000019890F844008DF80200FFE79DF902007A
:100C1000012816DBFFE70198006980B1FFE7019822
:100C2000103000F0BDFF18B1FFE700F017FA00E048
:100C3000FFE79DF8020001388DF8020000E000E0B7
:100C4000E4E70199FF2081F8440000F08DF902B03B
:100C500080BD000080B586B005900020019000F0B6
:100C60008FFA40F21820C2F20000006818B9FFE7BE
:100C7000FFF74CFE00E0FFE7059842F28C61C2F2FC
:100C800000010968084240F0A580FFE7059880B19F
:100C9000FFE70598083005909DF81400400730B133
:100CA000FFE7059820F007000830059000E0FFE717
:100CB00000E0FFE70598002800F08A80FFE705982C
:100CC00042F29061C2F200010968884200F280801D
:100CD000FFE742F2C460C2F2000003900068049093
:100CE000FFE704984168059A00209142009007D2DE
:100CF000FFE704980068002818BF01200090FFE774
:100D00000098C00730B1FFE704980390049800688A
:100D10000490E6E7049840F21821C2F20001096845
:100D2000884253D0FFE70398006808300190049888
:100D3000006803990860049840680599401A1128D2
:100D400011D3FFE70498059908440290049840687D
:100D50000599401A029948600598049948600298DC
:100D6000FFF76CFE00E0FFE70498426842F29060F3
:100D7000C2F200000168891A0160006842F29461C1
:100D8000C2F20001096888420BD2FFE742F290608C
:100D9000C2F20000006842F29461C2F200010860F1
:100DA00000E0FFE742F28C60C2F2000002680499A2
:100DB00048681043486004990020086042F2A0612E
:100DC000C2F2000108680130086000E0FFE700E0BF
:100DD000FFE700E0FFE700F03DFF019806B080BDAF
:100DE00040F21020C2F20000006848B1FFE740F274
:100DF0001020C2F200000168086D01300865FFE7AD
:100E000040F21020C2F200000068704782B00190EA
:100E10000198006900900198416880688860019994
:100E2000486889684860009840680199884205D1FF
:100E3000FFE7019880680099486000E0FFE70199AA
:100E4000002008610099086801380860009800686F
:100E500002B0704782B00190009102B0704700006C
:100E600081B00090009901F10800486000994FF0AE
:100E7000FF308860009901F10800C860009901F115
:100E80000800086100990020086001B07047000068
:100E900084B003900291029800680090009801309D
:100EA00020B9FFE703980069019010E0039808302B
:100EB0000190FFE70198406800680099884205D8D2
:100EC000FFE7FFE7019840680190F3E7FFE701982B
:100ED00040680299486002984168886001980299C8
:100EE0008860029801994860039802990861039903
:100EF00008680130086004B07047000083B00290B9
:100F0000019102984068009000980199486000980B
:100F10008068019988600198009989684860019803
:100F20000099886002980199086102990868013067
:100F3000086003B07047000081B04FF0100080F3EC
:100F40001188BFF36F8FBFF34F8F009040F2000006
:100F5000C2F200000168013101600068012801D17E
:100F6000FFE7FFE701B0704781B040F20000C2F236
:100F70000000016801390160006830B9FFE7002016
:100F80000090009880F31188FFE701B070470000DF
:100F900080B584B00390039802900398C0B3FFE734
:100FA000029808380290029801900198406842F235
:100FB0008C61C2F200010968084227D0FFE701985E
:100FC000006808BBFFE742F28C60C2F200000268D2
:100FD000019948689043486000F0D2F8019842684F
:100FE00042F29061C2F20001086810440860019862
:100FF000FFF724FD42F2A461C2F20001086801304B
:10100000086000F027FE00E0FFE700E0FFE7FFE7F1
:1010100004B080BD80B582B0019001980090009826
:1010200090F8460020B9FFE70098FFF7B1FF00E015
:10103000FFE702B080BD000081B0009042F29C60EA
:10104000C2F2000000680099086042F2E060C2F25B
:10105000000000680099486001B0704742F2E46106
:10106000C2F20001012008607047000080B582B024
:1010700001900091019840F21021C2F2000109682C
:101080001831FFF705FF00980121FFF75BFB02B065
:1010900080BD000080B586B005900491059803904E
:1010A000012000900598002867D0FFE70398C06CE6
:1010B0000499884203D2FFE70498019003E0039863
:1010C000C06C0190FFE70398C06A0199884252D032
:1010D000FFE70398006D01284BD1FFE70398C06A32
:1010E000029001980399C8620398C07E0006002808
:1010F00006D4FFE70198C0F138000399886100E049
:10110000FFE703984069029901EB810240F2202138
:10111000C2F2000101EB8201884228D1FFE7039867
:101120000430FFF773FE08B9FFE700E0FFE703981C
:10113000C06A42F28861C2F200010968884208D997
:10114000FFE70398C06A42F28861C2F200010860BA
:10115000FFE70399C86A00EB800240F22020C2F248
:10116000000000EB82000431FFF7C8FE00E0FFE75B
:1011700000E0FFE700E0FFE700E0FFE706B080BD2A
:1011800042F28461C2F200010868013008607047D1
:1011900080B584B042F28460C2F20000006838B1C9
:1011A000FFE742F2E461C2F20001012008606FE053
:1011B00042F2E461C2F200010020086040F2102017
:1011C000C2F200000068006B03904FF0A53002905F
:1011D00003980068B0F1A53F12D1FFE7039840687B
:1011E000B0F1A53F0CD1FFE703988068B0F1A53FAF
:1011F00006D1FFE70398C068B0F1A53F0AD0FFE72A
:1012000040F21021C2F20001086809683431FFF78A
:1012100021FEFFE742F28860C2F200000068019000
:10122000FFE7019800EB800140F22020C2F20000AD
:1012300050F8210020B9FFE7019801380190F0E74C
:10124000019800EB800140F22020C2F2000000EB88
:10125000810000900099486840684860009948689B
:101260000831884205D1FFE7009948684068486026
:10127000FFE700984068C06840F21021C2F2000108
:101280000860019842F28861C2F200010860FFE73D
:1012900004B080BD80B582B04FF0100080F311889B
:1012A000BFF36F8FBFF34F8F009000F0CDFA40B1C6
:1012B000FFE74EF60451CEF200014FF08050086077
:1012C000FFE700200190019880F3118802B080BDF3
:1012D00080B584B08DF80F000120019000210091AD
:1012E0009DF80F2000F022F802900298FFF76CFBA7
:1012F000029804B080BD000080B586B08DF817005C
:10130000049101200290002201929DF81710049B85
:10131000EC46CCF80010114600F034F80390039826
:10132000FFF752FB039806B080BD000080B588B07F
:10133000079006918DF81720079806994843039067
:1013400003985030FFF786FC04900498B0B1FFE793
:10135000049802900298503002900499002081F87D
:10136000460007980699029A9DF81730DDF810C0DC
:10137000EE46CEF800C0FFF73DFB00E0FFE7049823
:1013800008B080BD80B588B084460A98CDF81CC0EE
:101390000691059204938DF80F000498029002982C
:1013A00088B1FFE70299012081F846000798069965
:1013B000059A9DF80F30DDF808C0EE46CEF800C063
:1013C000FFF718FB00E0FFE7029808B080BD0000BF
:1013D00080B584B00390029103980190FFF7ACFDB3
:1013E00001990B68C86B0A6C00FB02308860019998
:1013F0000020886301990868486001990B68C86BF0
:101400000A6C013800FB0230C8600199FF2081F8A6
:101410004400019981F845000298D0B9FFE701988E
:101420000069A0B1FFE70198103000F0B9FB60B18E
:10143000FFE74EF60451CEF200014FF080500860F5
:10144000BFF34F8FBFF36F8F00E0FFE700E0FFE7D0
:1014500008E001981030FFF703FD01982430FFF7F2
:10146000FFFCFFE7FFF780FD012004B080BD000016
:1014700080B58AB0089007910692059300200490E9
:1014800008980090FFE7FFF757FD0098806B0099E0
:10149000C96B884204D3FFE70598022834D1FFE7DF
:1014A00000980799059AFFF7B7F903900098406AEA
:1014B000A0B1FFE70098243000F072FB60B1FFE7B5
:1014C0004EF60451CEF200014FF080500860BFF399
:1014D0004F8FBFF36F8F00E0FFE710E0039860B11C
:1014E000FFE74EF60451CEF200014FF08050086045
:1014F000BFF34F8FBFF36F8F00E0FFE7FFE7FFF70A
:1015000033FD0120099065E0069828B9FFE7FFF751
:101510002BFD002009905DE0049830B9FFE701A899
:10152000FFF78AFD0120049000E0FFE7FFE7FFE7F7
:10153000FFF71AFDFFF724FEFFF7FEFC009890F975
:101540004400013028B9FFE70099002081F84400E9
:10155000FFE7009890F94500013028B9FFE70099AE
:10156000002081F84500FFE7FFF7FEFC01A806A96F
:1015700000F004F928BBFFE70098FFF7D7FAC8B1DD
:10158000FFE7009810300699FFF770FD0098FFF70D
:1015900009FB00F05FFB60B9FFE74EF60451CEF2A5
:1015A00000014FF080500860BFF34F8FBFF36F8F83
:1015B000FFE705E00098FFF7F5FA00F04BFBFFE7C7
:1015C00007E00098FFF7EEFA00F044FB00200990D6
:1015D00000E058E709980AB080BD000080B58AB0E5
:1015E0000890079100200690089903910290FFE768
:1015F000FFF7A2FC0398806B0190019860B3FFE7AE
:1016000001980138039988630398006828B9FFE7B7
:10161000FFF7E6FB0399886000E0FFE703980069A5
:10162000A0B1FFE70398103000F0BAFA60B1FFE70D
:101630004EF60451CEF200014FF080500860BFF327
:101640004F8FBFF36F8F00E0FFE700E0FFE7FFF78A
:101650008BFC012009908DE0079828B9FFE7FFF780
:1016600083FC0020099085E0069830B9FFE704A8C4
:10167000FFF7E2FC0120069000E0FFE7FFE7FFE74D
:10168000FFF772FCFFF77CFDFFF756FC039890F91B
:101690004400013028B9FFE70399002081F8440095
:1016A000FFE7039890F94500013028B9FFE7039957
:1016B000002081F84500FFE7FFF756FC04A807A9C2
:1016C00000F05CF8A8BBFFE70398FFF71BFA48B3EC
:1016D000FFE70398006850B9FFE7FFF72DFC039878
:1016E000806800F0D5F90290FFF73EFC00E0FFE7CC
:1016F000039824300799FFF7B9FC0398FFF752FAD3
:1017000000F0A8FA60B9FFE74EF60451CEF20001EE
:101710004FF080500860BFF34F8FBFF36F8F00E032
:10172000FFE705E00398FFF73DFA00F093FAFFE7C3
:101730001FE00398FFF736FA00F08CFA0398FFF7E2
:10174000E1F9A0B1FFE7029870B1FFE7FFF7F4FB02
:101750000398FFF7C7F80090039880680099FFF797
:1017600099FCFFF701FCFFE70020099002E0FFE78A
:10177000FFE73DE709980AB080BD000080B586B05C
:1017800005900491FFF7D8FB42F2E060C2F200003E
:1017900000680290029805994968401A01900498DF
:1017A0000068013018B9FFE7002003902BE042F2F7
:1017B0009C60C2F20000006805990968884209D05F
:1017C000FFE7029805994968884203D3FFE70120A3
:1017D000039017E001980499096888420BD2FFE74B
:1017E000019A04990868801A08600598FFF724FC9C
:1017F0000020039005E00499002008600120039078
:10180000FFE7FFE7FFE7FFF7AFFB039806B080BDF8
:1018100081B042F2C060C2F20000006818B9FFE770
:10182000012000900DE042F28460C2F200000068E6
:1018300018B9FFE70220009002E000200090FFE7C7
:10184000FFE7009801B0704780B586B00020039094
:1018500042F28460C2F200000068002840F0B880C4
:10186000FFE742F2E061C2F2000108680130029035
:10187000029808600298C0B9FFE740F21422C2F251
:1018800000021068019040F21C21C2F200010868B9
:1018900010600198086042F29C61C2F20001086881
:1018A00001300860FFF75AF900E0FFE7029842F2C2
:1018B0009861C2F200010968884268D3FFE7FFE738
:1018C00040F21420C2F200000068006840B9FFE74F
:1018D00042F29861C2F200014FF0FF30086055E01B
:1018E00040F21420C2F200000068C068C068059091
:1018F00005984068049002980499884207D2FFE74F
:10190000049842F29861C2F2000108603EE0FFE7ED
:1019100005980430FFF77AFA0598806A28B1FFE746
:1019200005981830FFF772FA00E0FFE70598C06AE3
:1019300042F28861C2F200010968884208D9FFE7D3
:101940000598C06A42F28861C2F200010860FFE7B0
:101950000599C86A00EB800240F22020C2F2000024
:1019600000EB82000431FFF7C9FA0598C06A40F223
:101970001021C2F200010968C96A884203D3FFE757
:101980000120039000E0FFE7FFE799E7FFE740F25F
:101990001020C2F200000068C06A00EB800140F233
:1019A0002020C2F2000050F82100022803D3FFE7F4
:1019B0000120039000E0FFE742F2E460C2F2000081
:1019C000006818B1FFE70120039000E0FFE707E09F
:1019D00042F2A861C2F20001086801300860FFE726
:1019E000039806B080BD000080B584B003900398D2
:1019F0000290002001900398002844D0FFE702994C
:101A0000086D013808650299C86AC96C884238D0E7
:101A1000FFE70298006D90BBFFE702980430FFF7E4
:101A2000F5F908B9FFE700E0FFE70299C86CC86262
:101A30000299C86AC0F1380088610298C06A42F20F
:101A40008861C2F200010968884208D9FFE702985C
:101A5000C06A42F28861C2F200010860FFE70299A1
:101A6000C86A00EB800240F22020C2F2000000EBC6
:101A700082000431FFF742FA0120019000E0FFE705
:101A800000E0FFE700E0FFE7019804B080BD000040
:101A900080B584B0039003980290002001900398D1
:101AA000002878D0FFE70298C06A40F21021C2F205
:101AB00000010968C96A88425CD2FFE70298C07ECB
:101AC000000600280BD4FFE740F21020C2F200000D
:101AD0000068C06AC0F138000299886100E0FFE741
:101AE00002994869C96A01EB810240F22021C2F2E1
:101AF000000101EB8201884230D1FFE702980430F7
:101B0000FFF784F908B9FFE700E0FFE740F2102093
:101B1000C2F200000068C06A0299C8620298C06AF6
:101B200042F28861C2F200010968884208D9FFE7E1
:101B30000298C06A42F28861C2F200010860FFE7C1
:101B40000299C86A00EB800240F22020C2F2000035
:101B500000EB82000431FFF7D1F908E040F21020D9
:101B6000C2F200000068C06A0299C862FFE7012063
:101B700001900FE00298C06C40F21021C2F2000107
:101B80000968C96A884203D2FFE70120019000E09A
:101B9000FFE7FFE700E0FFE7019804B080BD000029
:101BA00080B584B003900398C068C0680290029822
:101BB0001830FFF72BF942F28460C2F2000000688F
:101BC00020BBFFE702980430FFF720F90298C06AB3
:101BD00042F28861C2F200010968884208D9FFE731
:101BE0000298C06A42F28861C2F200010860FFE711
:101BF0000299C86A00EB800240F22020C2F2000085
:101C000000EB82000431FFF779F909E0029800F156
:101C1000180142F2AC60C2F20000FFF76FF9FFE773
:101C20000298C06A40F21021C2F200010968C96A34
:101C3000884208D9FFE70120019042F2E461C2F234
:101C40000001086002E000200190FFE7019804B065
:101C500080BD000080B584B0002003900290FFF7A3
:101C60006BF942F28460C2F2000001680139016040
:101C70000068002840F09980FFE742F28060C2F2DD
:101C800000000068002800F08F80FFE7FFE742F2C5
:101C9000AC60C2F200000068002842D0FFE742F2C8
:101CA000AC60C2F20000C068C068039003981830AE
:101CB000FFF7ACF803980430FFF7A8F80398C06A60
:101CC00042F28861C2F200010968884208D9FFE740
:101CD0000398C06A42F28861C2F200010860FFE71F
:101CE0000399C86A00EB800240F22020C2F2000093
:101CF00000EB82000431FFF701F90398C06A40F25B
:101D00001021C2F200010968C96A884207D3FFE7BF
:101D100042F2E461C2F200010120086000E0FFE746
:101D2000B5E7039818B1FFE7FEF718FFFFE742F2A7
:101D3000A860C2F20000006801900198E0B1FFE7DE
:101D4000FFE7FFF781FD38B1FFE742F2E461C2F23D
:101D500000010120086000E0FFE7019801380190D0
:101D6000FFE701980028ECD1FFE742F2A861C2F238
:101D700000010020086000E0FFE742F2E460C2F2E8
:101D80000000006870B1FFE7012002904EF6045198
:101D9000CEF200014FF080500860BFF34F8FBFF3C9
:101DA0006F8F00E0FFE7FFE700E0FFE7FFF7DCF8F9
:101DB000029804B080BD0000D81D0008000000207B
:101DC0000800000050010008E01D00080800002085
:101DD000E02C000070010008AAAAAAAA00000000D6
:04000005080000ED02
:00000001FF
